{
  "contractName": "SimpleContract",
  "abi": [
    {
      "inputs": [],
      "payable": false,
      "stateMutability": "nonpayable",
      "type": "constructor"
    },
    {
      "constant": false,
      "inputs": [
        {
          "internalType": "int256",
          "name": "_inputVal",
          "type": "int256"
        }
      ],
      "name": "changeValueByOwner",
      "outputs": [],
      "payable": false,
      "stateMutability": "nonpayable",
      "type": "function"
    },
    {
      "constant": true,
      "inputs": [],
      "name": "getValue",
      "outputs": [
        {
          "internalType": "int256",
          "name": "",
          "type": "int256"
        }
      ],
      "payable": false,
      "stateMutability": "view",
      "type": "function"
    },
    {
      "constant": true,
      "inputs": [],
      "name": "getOwner",
      "outputs": [
        {
          "internalType": "address",
          "name": "",
          "type": "address"
        }
      ],
      "payable": false,
      "stateMutability": "view",
      "type": "function"
    },
    {
      "constant": false,
      "inputs": [
        {
          "internalType": "address",
          "name": "_receiver",
          "type": "address"
        }
      ],
      "name": "changeOwner",
      "outputs": [],
      "payable": false,
      "stateMutability": "nonpayable",
      "type": "function"
    }
  ],
  "bytecode": "0x608060405234801561001057600080fd5b5033600160006101000a81548173ffffffffffffffffffffffffffffffffffffffff021916908373ffffffffffffffffffffffffffffffffffffffff16021790555060008081905550610351806100686000396000f3fe608060405234801561001057600080fd5b506004361061004c5760003560e01c806320965255146100515780637c2349f51461006f578063893d20e81461009d578063a6f9dae1146100e7575b600080fd5b61005961012b565b6040518082815260200191505060405180910390f35b61009b6004803603602081101561008557600080fd5b8101908080359060200190929190505050610134565b005b6100a56101e4565b604051808273ffffffffffffffffffffffffffffffffffffffff1673ffffffffffffffffffffffffffffffffffffffff16815260200191505060405180910390f35b610129600480360360208110156100fd57600080fd5b81019080803573ffffffffffffffffffffffffffffffffffffffff16906020019092919050505061020e565b005b60008054905090565b600160009054906101000a900473ffffffffffffffffffffffffffffffffffffffff1673ffffffffffffffffffffffffffffffffffffffff163373ffffffffffffffffffffffffffffffffffffffff16146101da576040517f08c379a00000000000000000000000000000000000000000000000000000000081526004018080602001828103825260248152602001806102f96024913960400191505060405180910390fd5b8060008190555050565b6000600160009054906101000a900473ffffffffffffffffffffffffffffffffffffffff16905090565b600160009054906101000a900473ffffffffffffffffffffffffffffffffffffffff1673ffffffffffffffffffffffffffffffffffffffff163373ffffffffffffffffffffffffffffffffffffffff16146102b4576040517f08c379a00000000000000000000000000000000000000000000000000000000081526004018080602001828103825260248152602001806102f96024913960400191505060405180910390fd5b80600160006101000a81548173ffffffffffffffffffffffffffffffffffffffff021916908373ffffffffffffffffffffffffffffffffffffffff1602179055505056fe4f6e6c7920746865206f776e65722063616e20646f20746869732066756e6374696f6e2ea265627a7a723158207fe5f8096f812ff3149307078154fc4bf8eb7e196ed3790a8c839bb2695decd364736f6c63430005100032",
  "source": "pragma solidity ^0.5.16;\n\ncontract SimpleContract {\n    int currVal;\n    address owner;\n    constructor() public {\n        owner = msg.sender; // Set the owner to the person that created the contract.\n        currVal=0;\n    }\n    // onlyOwner is a modifier that will be used to prevent non-owners from doing things.\n    modifier onlyOwner{\n        require(\n          address(msg.sender) == address(owner),\n          'Only the owner can do this function.');\n        _;\n    }\n    function changeValueByOwner(int _inputVal) public onlyOwner {\n        currVal = _inputVal;\n    }\n    function getValue() public view returns(int){\n        return currVal;\n    }\n    function getOwner() public view returns(address){\n        return owner;\n    }\n\n    function changeOwner(address _receiver) public onlyOwner {\n        owner = _receiver;\n    }\n}",
  "sourcePath": "/home/bstankie/git/SolidityTesting/contracts/SimpleContract.sol",
  "compiler": {
    "name": "solc",
    "version": "0.5.16+commit.9c3226ce.Emscripten.clang"
  },
  "schemaVersion": "3.2.3",
  "updatedAt": "2020-07-28T23:19:12.054Z",
  "networkType": "ethereum",
  "devdoc": {
    "methods": {}
  },
  "userdoc": {
    "methods": {}
  }
}