{
  "contractName": "SimpleContract",
  "abi": [
    {
      "inputs": [],
      "payable": false,
      "stateMutability": "nonpayable",
      "type": "constructor"
    },
    {
      "constant": false,
      "inputs": [
        {
          "internalType": "int256",
          "name": "_inputVal",
          "type": "int256"
        }
      ],
      "name": "changeValueByOwner",
      "outputs": [],
      "payable": false,
      "stateMutability": "nonpayable",
      "type": "function"
    }
  ],
  "bytecode": "0x608060405234801561001057600080fd5b5033600160006101000a81548173ffffffffffffffffffffffffffffffffffffffff021916908373ffffffffffffffffffffffffffffffffffffffff160217905550610167806100616000396000f3fe608060405234801561001057600080fd5b506004361061002b5760003560e01c80637c2349f514610030575b600080fd5b61005c6004803603602081101561004657600080fd5b810190808035906020019092919050505061005e565b005b600160009054906101000a900473ffffffffffffffffffffffffffffffffffffffff1673ffffffffffffffffffffffffffffffffffffffff163373ffffffffffffffffffffffffffffffffffffffff1614610104576040517f08c379a000000000000000000000000000000000000000000000000000000000815260040180806020018281038252602481526020018061010f6024913960400191505060405180910390fd5b806000819055505056fe4f6e6c7920746865206f776e65722063616e20646f20746869732066756e6374696f6e2ea265627a7a72315820d508976690d09cf75fab253aeb76b877859518e2ddf7e17f649dcc7156a7d2cf64736f6c63430005100032",
  "source": "pragma solidity ^0.5.16;\n\ncontract SimpleContract {\n    int currVal;\n    address owner;\n    constructor() public {\n        owner = msg.sender; // Set the owner to the person that created the contract.\n    }\n    // onlyOwner is a modifier that will be used to prevent non-owners from doing things.\n    modifier onlyOwner{\n        require(\n          msg.sender == address(owner),\n          'Only the owner can do this function.');\n        _;\n    }\n    function changeValueByOwner(int _inputVal) public onlyOwner {\n        currVal = _inputVal;\n    }\n}",
  "sourcePath": "/home/bstankie/git/SolidityTesting/contracts/SimpleContract.sol",
  "compiler": {
    "name": "solc",
    "version": "0.5.16+commit.9c3226ce.Emscripten.clang"
  },
  "schemaVersion": "3.2.2",
  "updatedAt": "2020-07-26T18:18:50.049Z",
  "devdoc": {
    "methods": {}
  },
  "userdoc": {
    "methods": {}
  }
}